{
  "address": "0x91f840468F54B2e26050c0eb38b058E0e883e7b1",
  "abi": [
    {
      "anonymous": false,
      "inputs": [
        {
          "indexed": true,
          "internalType": "uint256",
          "name": "pledgeId",
          "type": "uint256"
        },
        {
          "indexed": true,
          "internalType": "address",
          "name": "donor",
          "type": "address"
        },
        {
          "indexed": true,
          "internalType": "address",
          "name": "ngoAddress",
          "type": "address"
        },
        {
          "indexed": false,
          "internalType": "uint256",
          "name": "postId",
          "type": "uint256"
        },
        {
          "indexed": false,
          "internalType": "address",
          "name": "token",
          "type": "address"
        },
        {
          "indexed": false,
          "internalType": "uint256",
          "name": "amount",
          "type": "uint256"
        },
        {
          "indexed": false,
          "internalType": "uint256",
          "name": "minReputation",
          "type": "uint256"
        }
      ],
      "name": "DonationPledged",
      "type": "event"
    },
    {
      "anonymous": false,
      "inputs": [
        {
          "indexed": true,
          "internalType": "address",
          "name": "ngoAddress",
          "type": "address"
        },
        {
          "indexed": false,
          "internalType": "string",
          "name": "newName",
          "type": "string"
        }
      ],
      "name": "NGOProfileUpdated",
      "type": "event"
    },
    {
      "anonymous": false,
      "inputs": [
        {
          "indexed": true,
          "internalType": "address",
          "name": "ngoAddress",
          "type": "address"
        },
        {
          "indexed": false,
          "internalType": "string",
          "name": "name",
          "type": "string"
        }
      ],
      "name": "NGORegistered",
      "type": "event"
    },
    {
      "anonymous": false,
      "inputs": [
        {
          "indexed": true,
          "internalType": "uint256",
          "name": "pledgeId",
          "type": "uint256"
        },
        {
          "indexed": true,
          "internalType": "address",
          "name": "donor",
          "type": "address"
        },
        {
          "indexed": true,
          "internalType": "address",
          "name": "ngoAddress",
          "type": "address"
        },
        {
          "indexed": false,
          "internalType": "uint256",
          "name": "amount",
          "type": "uint256"
        }
      ],
      "name": "PledgeExecuted",
      "type": "event"
    },
    {
      "anonymous": false,
      "inputs": [
        {
          "indexed": true,
          "internalType": "uint256",
          "name": "postId",
          "type": "uint256"
        },
        {
          "indexed": true,
          "internalType": "address",
          "name": "ngoAddress",
          "type": "address"
        },
        {
          "indexed": false,
          "internalType": "string",
          "name": "contentUrl",
          "type": "string"
        }
      ],
      "name": "PostCreated",
      "type": "event"
    },
    {
      "anonymous": false,
      "inputs": [
        {
          "indexed": true,
          "internalType": "uint256",
          "name": "postId",
          "type": "uint256"
        },
        {
          "indexed": true,
          "internalType": "address",
          "name": "donator",
          "type": "address"
        },
        {
          "indexed": false,
          "internalType": "uint256",
          "name": "amount",
          "type": "uint256"
        }
      ],
      "name": "PostDonated",
      "type": "event"
    },
    {
      "anonymous": false,
      "inputs": [
        {
          "indexed": true,
          "internalType": "uint256",
          "name": "postId",
          "type": "uint256"
        },
        {
          "indexed": true,
          "internalType": "address",
          "name": "liker",
          "type": "address"
        },
        {
          "indexed": false,
          "internalType": "uint256",
          "name": "newLikeCount",
          "type": "uint256"
        }
      ],
      "name": "PostLiked",
      "type": "event"
    },
    {
      "inputs": [
        {
          "internalType": "uint256",
          "name": "",
          "type": "uint256"
        }
      ],
      "name": "allPosts",
      "outputs": [
        {
          "internalType": "uint256",
          "name": "postId",
          "type": "uint256"
        },
        {
          "internalType": "address",
          "name": "ngoOwner",
          "type": "address"
        },
        {
          "internalType": "string",
          "name": "contentUrl",
          "type": "string"
        },
        {
          "internalType": "uint256",
          "name": "likeCount",
          "type": "uint256"
        },
        {
          "internalType": "uint256",
          "name": "totalDonated",
          "type": "uint256"
        }
      ],
      "stateMutability": "view",
      "type": "function"
    },
    {
      "inputs": [
        {
          "internalType": "string",
          "name": "_contentUrl",
          "type": "string"
        }
      ],
      "name": "createPost",
      "outputs": [],
      "stateMutability": "nonpayable",
      "type": "function"
    },
    {
      "inputs": [
        {
          "internalType": "uint256",
          "name": "_postId",
          "type": "uint256"
        }
      ],
      "name": "donateToPost",
      "outputs": [],
      "stateMutability": "payable",
      "type": "function"
    },
    {
      "inputs": [
        {
          "internalType": "address",
          "name": "_ngoOwner",
          "type": "address"
        }
      ],
      "name": "getNgoPostIds",
      "outputs": [
        {
          "internalType": "uint256[]",
          "name": "",
          "type": "uint256[]"
        }
      ],
      "stateMutability": "view",
      "type": "function"
    },
    {
      "inputs": [],
      "name": "getPostCount",
      "outputs": [
        {
          "internalType": "uint256",
          "name": "",
          "type": "uint256"
        }
      ],
      "stateMutability": "view",
      "type": "function"
    },
    {
      "inputs": [
        {
          "internalType": "uint256",
          "name": "_postId",
          "type": "uint256"
        }
      ],
      "name": "getPostDetails",
      "outputs": [
        {
          "components": [
            {
              "internalType": "uint256",
              "name": "postId",
              "type": "uint256"
            },
            {
              "internalType": "address",
              "name": "ngoOwner",
              "type": "address"
            },
            {
              "internalType": "string",
              "name": "contentUrl",
              "type": "string"
            },
            {
              "internalType": "uint256",
              "name": "likeCount",
              "type": "uint256"
            },
            {
              "internalType": "uint256",
              "name": "totalDonated",
              "type": "uint256"
            },
            {
              "internalType": "string",
              "name": "ngoName",
              "type": "string"
            },
            {
              "internalType": "uint256",
              "name": "ngoReputation",
              "type": "uint256"
            }
          ],
          "internalType": "struct YourContract.PostWithNgoDetails",
          "name": "",
          "type": "tuple"
        }
      ],
      "stateMutability": "view",
      "type": "function"
    },
    {
      "inputs": [
        {
          "internalType": "uint256",
          "name": "",
          "type": "uint256"
        },
        {
          "internalType": "address",
          "name": "",
          "type": "address"
        }
      ],
      "name": "hasLiked",
      "outputs": [
        {
          "internalType": "bool",
          "name": "",
          "type": "bool"
        }
      ],
      "stateMutability": "view",
      "type": "function"
    },
    {
      "inputs": [
        {
          "internalType": "uint256",
          "name": "_postId",
          "type": "uint256"
        }
      ],
      "name": "likePost",
      "outputs": [],
      "stateMutability": "nonpayable",
      "type": "function"
    },
    {
      "inputs": [
        {
          "internalType": "address",
          "name": "",
          "type": "address"
        },
        {
          "internalType": "uint256",
          "name": "",
          "type": "uint256"
        }
      ],
      "name": "ngoPosts",
      "outputs": [
        {
          "internalType": "uint256",
          "name": "",
          "type": "uint256"
        }
      ],
      "stateMutability": "view",
      "type": "function"
    },
    {
      "inputs": [
        {
          "internalType": "address",
          "name": "",
          "type": "address"
        }
      ],
      "name": "ngos",
      "outputs": [
        {
          "internalType": "string",
          "name": "name",
          "type": "string"
        },
        {
          "internalType": "address",
          "name": "owner",
          "type": "address"
        },
        {
          "internalType": "uint256",
          "name": "reputation",
          "type": "uint256"
        },
        {
          "internalType": "bool",
          "name": "isRegistered",
          "type": "bool"
        },
        {
          "internalType": "uint256",
          "name": "totalRaisedByNgo",
          "type": "uint256"
        }
      ],
      "stateMutability": "view",
      "type": "function"
    },
    {
      "inputs": [
        {
          "internalType": "address",
          "name": "",
          "type": "address"
        },
        {
          "internalType": "uint256",
          "name": "",
          "type": "uint256"
        }
      ],
      "name": "pendingPledgesForNGO",
      "outputs": [
        {
          "internalType": "uint256",
          "name": "",
          "type": "uint256"
        }
      ],
      "stateMutability": "view",
      "type": "function"
    },
    {
      "inputs": [
        {
          "internalType": "uint256",
          "name": "_postId",
          "type": "uint256"
        },
        {
          "internalType": "address",
          "name": "_token",
          "type": "address"
        },
        {
          "internalType": "uint256",
          "name": "_amount",
          "type": "uint256"
        },
        {
          "internalType": "uint256",
          "name": "_minReputationTokens",
          "type": "uint256"
        }
      ],
      "name": "pledgeDonation",
      "outputs": [],
      "stateMutability": "nonpayable",
      "type": "function"
    },
    {
      "inputs": [
        {
          "internalType": "uint256",
          "name": "",
          "type": "uint256"
        }
      ],
      "name": "pledges",
      "outputs": [
        {
          "internalType": "uint256",
          "name": "pledgeId",
          "type": "uint256"
        },
        {
          "internalType": "address",
          "name": "donor",
          "type": "address"
        },
        {
          "internalType": "address",
          "name": "token",
          "type": "address"
        },
        {
          "internalType": "uint256",
          "name": "amount",
          "type": "uint256"
        },
        {
          "internalType": "address",
          "name": "ngoAddress",
          "type": "address"
        },
        {
          "internalType": "uint256",
          "name": "minReputation",
          "type": "uint256"
        },
        {
          "internalType": "uint256",
          "name": "postId",
          "type": "uint256"
        },
        {
          "internalType": "bool",
          "name": "isActive",
          "type": "bool"
        }
      ],
      "stateMutability": "view",
      "type": "function"
    },
    {
      "inputs": [
        {
          "internalType": "string",
          "name": "_name",
          "type": "string"
        }
      ],
      "name": "registerNGO",
      "outputs": [],
      "stateMutability": "nonpayable",
      "type": "function"
    },
    {
      "inputs": [
        {
          "internalType": "string",
          "name": "_newName",
          "type": "string"
        }
      ],
      "name": "updateNGOName",
      "outputs": [],
      "stateMutability": "nonpayable",
      "type": "function"
    }
  ],
  "transactionHash": "0x773834b7650bdde721599b2af526e3cdbe8ef1711bae3b2fe249ecf21d0f8fdf",
  "args": [],
  "numDeployments": 8,
  "solcInputHash": "2f064e0ca61df461f0b4aded4fcb21b8",
  "bytecode": "0x608060405234801561001057600080fd5b50611b88806100206000396000f3fe6080604052600436106100e85760003560e01c8063ac1240811161008a578063c7303c6111610059578063c7303c611461033f578063c8c7b16c1461035f578063dea5eae81461037f578063e6f7d11e1461039f57600080fd5b8063ac12408114610238578063b68603b6146102f7578063bcc954071461030a578063c089bf161461031f57600080fd5b8063718ce2bc116100c6578063718ce2bc1461016f578063725009d3146101a05780638fb7092c146101c05780639fc226f41461020b57600080fd5b80634f2be189146100ed57806350d4bd9f1461012057806355c8463914610142575b600080fd5b3480156100f957600080fd5b5061010d610108366004611618565b6103d0565b6040519081526020015b60405180910390f35b34801561012c57600080fd5b5061014061013b366004611642565b610401565b005b34801561014e57600080fd5b5061016261015d36600461167d565b610731565b604051610117919061169f565b34801561017b57600080fd5b5061018f61018a3660046116e3565b61079d565b604051610117959493929190611742565b3480156101ac57600080fd5b506101406101bb3660046116e3565b610872565b3480156101cc57600080fd5b506101fb6101db366004611780565b600260209081526000928352604080842090915290825290205460ff1681565b6040519015158152602001610117565b34801561021757600080fd5b5061022b6102263660046116e3565b610a29565b60405161011791906117ac565b34801561024457600080fd5b506102a76102533660046116e3565b60056020819052600091825260409091208054600182015460028301546003840154600485015495850154600686015460079096015494966001600160a01b03948516969385169592941692909160ff1688565b604080519889526001600160a01b0397881660208a01529587169588019590955260608701939093529316608085015260a084019290925260c0830191909152151560e082015261010001610117565b6101406103053660046116e3565b610c39565b34801561031657600080fd5b5060015461010d565b34801561032b57600080fd5b5061010d61033a366004611618565b610dfc565b34801561034b57600080fd5b5061014061035a366004611843565b610e18565b34801561036b57600080fd5b5061014061037a366004611843565b610fdf565b34801561038b57600080fd5b5061014061039a366004611843565b611118565b3480156103ab57600080fd5b506103bf6103ba36600461167d565b6111d6565b6040516101179594939291906118f4565b600360205281600052604060002081815481106103ec57600080fd5b90600052602060002001600091509150505481565b600154841061042b5760405162461bcd60e51b815260040161042290611934565b60405180910390fd5b6000821161047b5760405162461bcd60e51b815260206004820152601d60248201527f56616c6f72206465766520736572206d61696f7220717565207a65726f0000006044820152606401610422565b6000600185815481106104905761049061195d565b600091825260208220600591909102016001810154604051636eb1769f60e11b81523360048201523060248201529193506001600160a01b0390811692919087169063dd62ed3e90604401602060405180830381865afa1580156104f8573d6000803e3d6000fd5b505050506040513d601f19601f8201168201806040525081019061051c9190611973565b90508481101561057f5760405162461bcd60e51b815260206004820152602860248201527f5665726966697175652061207065726d697373616f2028617070726f766529206044820152673237903a37b5b2b760c11b6064820152608401610422565b6004805460009182610590836119a2565b9190505590506000600560008381526020019081526020016000209050818160000181905550338160010160006101000a8154816001600160a01b0302191690836001600160a01b03160217905550878160020160006101000a8154816001600160a01b0302191690836001600160a01b03160217905550868160030181905550838160040160006101000a8154816001600160a01b0302191690836001600160a01b0316021790555085816005018190555088816006018190555060018160070160006101000a81548160ff02191690831515021790555060066000856001600160a01b03166001600160a01b03168152602001908152602001600020829080600181540180825580915050600190039060005260206000200160009091909190915055836001600160a01b0316336001600160a01b0316837f31c2be20f2726157996b2fd9c2a89e19fe75e47a0e0b3a3f34453a285f508c728c8c8c8c60405161071e94939291909384526001600160a01b039290921660208401526040830152606082015260800190565b60405180910390a4505050505050505050565b6001600160a01b03811660009081526003602090815260409182902080548351818402810184019094528084526060939283018282801561079157602002820191906000526020600020905b81548152602001906001019080831161077d575b50505050509050919050565b600181815481106107ad57600080fd5b60009182526020909120600590910201805460018201546002830180549294506001600160a01b0390911692916107e3906119bb565b80601f016020809104026020016040519081016040528092919081815260200182805461080f906119bb565b801561085c5780601f106108315761010080835404028352916020019161085c565b820191906000526020600020905b81548152906001019060200180831161083f57829003601f168201915b5050505050908060030154908060040154905085565b600154339082106108955760405162461bcd60e51b815260040161042290611934565b60008281526002602090815260408083206001600160a01b038516845290915290205460ff16156109085760405162461bcd60e51b815260206004820152601860248201527f566f6365206a6120637572746975206573746520706f737400000000000000006044820152606401610422565b60006001838154811061091d5761091d61195d565b600091825260208083206001600590930201828101546001600160a01b039081168552848352604080862089875260028552818720928916875291909352918420805460ff19168417905560038101805491955091939061097f9084906119f5565b92505081905550600181600201600082825461099b91906119f5565b92505081905550826001600160a01b0316847fdfb8e3561bacb6caea7f0960d425956921b9147a631b6e857325c39911ee7e3b84600301546040516109e291815260200190565b60405180910390a360018201546001600160a01b031660009081526006602052604090205415610a23576001820154610a23906001600160a01b031661129d565b50505050565b610a726040518060e001604052806000815260200160006001600160a01b0316815260200160608152602001600081526020016000815260200160608152602001600081525090565b6001548210610a935760405162461bcd60e51b815260040161042290611934565b600060018381548110610aa857610aa861195d565b6000918252602080832060059290920290910160018101546001600160a01b0316808452838352604093849020845160e08101865283548152938401919091526002820180549295509093830191610aff906119bb565b80601f0160208091040260200160405190810160405280929190818152602001828054610b2b906119bb565b8015610b785780601f10610b4d57610100808354040283529160200191610b78565b820191906000526020600020905b815481529060010190602001808311610b5b57829003601f168201915b505050505081526020018360030154815260200183600401548152602001826000018054610ba5906119bb565b80601f0160208091040260200160405190810160405280929190818152602001828054610bd1906119bb565b8015610c1e5780601f10610bf357610100808354040283529160200191610c1e565b820191906000526020600020905b815481529060010190602001808311610c0157829003601f168201915b50505050508152602001826002015481525092505050919050565b6001548110610c5a5760405162461bcd60e51b815260040161042290611934565b60003411610caa5760405162461bcd60e51b815260206004820152601f60248201527f566f6365206465766520656e7669617220616c67756d61207175616e746961006044820152606401610422565b600060018281548110610cbf57610cbf61195d565b9060005260206000209060050201905034816004016000828254610ce391906119f5565b909155505060018101546001600160a01b0316600090815260208190526040812060048101805491923492610d199084906119f5565b909155505060018201546040516001600160a01b0390911690600090829034908381818185875af1925050503d8060008114610d71576040519150601f19603f3d011682016040523d82523d6000602084013e610d76565b606091505b5050905080610dbe5760405162461bcd60e51b81526020600482015260146024820152735472616e73666572656e6369612066616c686f7560601b6044820152606401610422565b604051348152339086907f9a51943191e4da7412a24fb127185e4543f4145c53cfbb5b737e724c3ed76c149060200160405180910390a35050505050565b600660205281600052604060002081815481106103ec57600080fd5b3360008181526020819052604090206003015460ff16610e7a5760405162461bcd60e51b815260206004820152601d60248201527f566f6365206e616f206520756d61204f4e4720726567697374726164610000006044820152606401610422565b600180546040805160a0810182528281526001600160a01b03858116602083019081529282018781526000606084018190526080840181905285870187559590955281517fb10e2d527612073b26eecdfd717e6a320cf44b4afac2b0732d9fcbe2b7fa0cf66005860290810191825593517fb10e2d527612073b26eecdfd717e6a320cf44b4afac2b0732d9fcbe2b7fa0cf7850180546001600160a01b031916919093161790915593519293909283927fb10e2d527612073b26eecdfd717e6a320cf44b4afac2b0732d9fcbe2b7fa0cf80190610f579082611a5d565b5060608201516003808301919091556080909201516004909101556001600160a01b038416600081815260209283526040808220805460018101825590835293909120909201849055905183907f8e40a51278abe2f4b410c0a96ff0bdd024b22666ca334062bf72afd596984bd690610fd1908890611b1d565b60405180910390a350505050565b3360008181526020819052604090206003015460ff16156110365760405162461bcd60e51b81526020600482015260116024820152704f4e47206a61207265676973747261646160781b6044820152606401610422565b6040805160a0810182528381526001600160a01b03831660208083018290526000838501819052600160608501526080840181905291825281905291909120815181906110839082611a5d565b5060208201516001820180546001600160a01b0319166001600160a01b039283161790556040808401516002840155606084015160038401805460ff19169115159190911790556080909301516004909201919091559051908216907f0386741c0345c35e0430ddfe5fee0c0afbfad9de0f6c1f1ece8021927c2f73209061110c908590611b1d565b60405180910390a25050565b3360008181526020819052604090206003015460ff1661117a5760405162461bcd60e51b815260206004820152601d60248201527f566f6365206e616f206520756d61204f4e4720726567697374726164610000006044820152606401610422565b6001600160a01b038116600090815260208190526040902061119c8382611a5d565b50806001600160a01b03167fce9c7090b150017d47ccdac62dbca452828cb7b68b3d56804a133ab7602e32878360405161110c9190611b1d565b6000602081905290815260409020805481906111f1906119bb565b80601f016020809104026020016040519081016040528092919081815260200182805461121d906119bb565b801561126a5780601f1061123f5761010080835404028352916020019161126a565b820191906000526020600020905b81548152906001019060200180831161124d57829003601f168201915b50505060018401546002850154600386015460049096015494956001600160a01b039092169490935060ff909116915085565b6001600160a01b0381166000908152602081815260408083206002810154600690935290832080549193909167ffffffffffffffff8111156112e1576112e161182d565b60405190808252806020026020018201604052801561130a578160200160208202803683370190505b5090506000805b835481101561152f57600084828154811061132e5761132e61195d565b60009182526020808320909101548083526005909152604090912060078101549192509060ff1661136057505061151d565b806005015487106114ee576002810154600182015460048084015460038501546040516323b872dd60e01b81526001600160a01b0394851693810193909352908316602483015260448201529116906323b872dd906064016020604051808303816000875af19250505080156113f3575060408051601f3d908101601f191682019092526113f091810190611b30565b60015b611427578185858151811061140a5761140a61195d565b60209081029190910101528361141f816119a2565b94505061151a565b5060078101805460ff19169055600381015460048901805460009061144d9084906119f5565b92505081905550806003015460018260060154815481106114705761147061195d565b9060005260206000209060050201600401600082825461149091906119f5565b90915550506004810154600182015460038301546040519081526001600160a01b03928316929091169084907f1d7c28677204c812773e603663b9e018f60e3eb45f44ed640c78eca84607dcba9060200160405180910390a461151a565b818585815181106115015761150161195d565b602090810291909101015283611516816119a2565b9450505b50505b80611527816119a2565b915050611311565b506001600160a01b0386166000908152600660205260408120611551916115c2565b60005b818110156115b9576001600160a01b038716600090815260066020526040902083518490839081106115885761158861195d565b60209081029190910181015182546001810184556000938452919092200155806115b1816119a2565b915050611554565b50505050505050565b50805460008255906000526020600020908101906115e091906115e3565b50565b5b808211156115f857600081556001016115e4565b5090565b80356001600160a01b038116811461161357600080fd5b919050565b6000806040838503121561162b57600080fd5b611634836115fc565b946020939093013593505050565b6000806000806080858703121561165857600080fd5b84359350611668602086016115fc565b93969395505050506040820135916060013590565b60006020828403121561168f57600080fd5b611698826115fc565b9392505050565b6020808252825182820181905260009190848201906040850190845b818110156116d7578351835292840192918401916001016116bb565b50909695505050505050565b6000602082840312156116f557600080fd5b5035919050565b6000815180845260005b8181101561172257602081850181015186830182015201611706565b506000602082860101526020601f19601f83011685010191505092915050565b8581526001600160a01b038516602082015260a06040820181905260009061176c908301866116fc565b606083019490945250608001529392505050565b6000806040838503121561179357600080fd5b823591506117a3602084016115fc565b90509250929050565b602081528151602082015260018060a01b0360208301511660408201526000604083015160e060608401526117e56101008401826116fc565b905060608401516080840152608084015160a084015260a0840151601f198483030160c085015261181682826116fc565b91505060c084015160e08401528091505092915050565b634e487b7160e01b600052604160045260246000fd5b60006020828403121561185557600080fd5b813567ffffffffffffffff8082111561186d57600080fd5b818401915084601f83011261188157600080fd5b8135818111156118935761189361182d565b604051601f8201601f19908116603f011681019083821181831017156118bb576118bb61182d565b816040528281528760208487010111156118d457600080fd5b826020860160208301376000928101602001929092525095945050505050565b60a08152600061190760a08301886116fc565b6001600160a01b039690961660208301525060408101939093529015156060830152608090910152919050565b6020808252600f908201526e506f7374206e616f2065786973746560881b604082015260600190565b634e487b7160e01b600052603260045260246000fd5b60006020828403121561198557600080fd5b5051919050565b634e487b7160e01b600052601160045260246000fd5b6000600182016119b4576119b461198c565b5060010190565b600181811c908216806119cf57607f821691505b6020821081036119ef57634e487b7160e01b600052602260045260246000fd5b50919050565b80820180821115611a0857611a0861198c565b92915050565b601f821115611a5857600081815260208120601f850160051c81016020861015611a355750805b601f850160051c820191505b81811015611a5457828155600101611a41565b5050505b505050565b815167ffffffffffffffff811115611a7757611a7761182d565b611a8b81611a8584546119bb565b84611a0e565b602080601f831160018114611ac05760008415611aa85750858301515b600019600386901b1c1916600185901b178555611a54565b600085815260208120601f198616915b82811015611aef57888601518255948401946001909101908401611ad0565b5085821015611b0d5787850151600019600388901b60f8161c191681555b5050505050600190811b01905550565b60208152600061169860208301846116fc565b600060208284031215611b4257600080fd5b8151801515811461169857600080fdfea2646970667358221220d1bfafe7469224e668d6d3c4f062ca76280d7a1d4fefe4d225a06bb1db0a98f264736f6c63430008140033",
  "devdoc": {
    "kind": "dev",
    "methods": {
      "likePost(uint256)": {
        "details": "Funo 'likePost' que tambm atua como o GATILHO para os penhores."
      },
      "pledgeDonation(uint256,address,uint256,uint256)": {
        "details": "Registra um \"penhor\" de doao de token ERC20."
      }
    },
    "version": 1
  },
  "userdoc": {
    "kind": "user",
    "methods": {},
    "version": 1
  },
  "storageLayout": {
    "storage": [
      {
        "astId": 140,
        "contract": "contracts/YourContract.sol:YourContract",
        "label": "ngos",
        "offset": 0,
        "slot": "0",
        "type": "t_mapping(t_address,t_struct(NGO)92_storage)"
      },
      {
        "astId": 144,
        "contract": "contracts/YourContract.sol:YourContract",
        "label": "allPosts",
        "offset": 0,
        "slot": "1",
        "type": "t_array(t_struct(Post)103_storage)dyn_storage"
      },
      {
        "astId": 150,
        "contract": "contracts/YourContract.sol:YourContract",
        "label": "hasLiked",
        "offset": 0,
        "slot": "2",
        "type": "t_mapping(t_uint256,t_mapping(t_address,t_bool))"
      },
      {
        "astId": 155,
        "contract": "contracts/YourContract.sol:YourContract",
        "label": "ngoPosts",
        "offset": 0,
        "slot": "3",
        "type": "t_mapping(t_address,t_array(t_uint256)dyn_storage)"
      },
      {
        "astId": 157,
        "contract": "contracts/YourContract.sol:YourContract",
        "label": "_pledgeCounter",
        "offset": 0,
        "slot": "4",
        "type": "t_uint256"
      },
      {
        "astId": 162,
        "contract": "contracts/YourContract.sol:YourContract",
        "label": "pledges",
        "offset": 0,
        "slot": "5",
        "type": "t_mapping(t_uint256,t_struct(Pledge)135_storage)"
      },
      {
        "astId": 167,
        "contract": "contracts/YourContract.sol:YourContract",
        "label": "pendingPledgesForNGO",
        "offset": 0,
        "slot": "6",
        "type": "t_mapping(t_address,t_array(t_uint256)dyn_storage)"
      }
    ],
    "types": {
      "t_address": {
        "encoding": "inplace",
        "label": "address",
        "numberOfBytes": "20"
      },
      "t_array(t_struct(Post)103_storage)dyn_storage": {
        "base": "t_struct(Post)103_storage",
        "encoding": "dynamic_array",
        "label": "struct YourContract.Post[]",
        "numberOfBytes": "32"
      },
      "t_array(t_uint256)dyn_storage": {
        "base": "t_uint256",
        "encoding": "dynamic_array",
        "label": "uint256[]",
        "numberOfBytes": "32"
      },
      "t_bool": {
        "encoding": "inplace",
        "label": "bool",
        "numberOfBytes": "1"
      },
      "t_mapping(t_address,t_array(t_uint256)dyn_storage)": {
        "encoding": "mapping",
        "key": "t_address",
        "label": "mapping(address => uint256[])",
        "numberOfBytes": "32",
        "value": "t_array(t_uint256)dyn_storage"
      },
      "t_mapping(t_address,t_bool)": {
        "encoding": "mapping",
        "key": "t_address",
        "label": "mapping(address => bool)",
        "numberOfBytes": "32",
        "value": "t_bool"
      },
      "t_mapping(t_address,t_struct(NGO)92_storage)": {
        "encoding": "mapping",
        "key": "t_address",
        "label": "mapping(address => struct YourContract.NGO)",
        "numberOfBytes": "32",
        "value": "t_struct(NGO)92_storage"
      },
      "t_mapping(t_uint256,t_mapping(t_address,t_bool))": {
        "encoding": "mapping",
        "key": "t_uint256",
        "label": "mapping(uint256 => mapping(address => bool))",
        "numberOfBytes": "32",
        "value": "t_mapping(t_address,t_bool)"
      },
      "t_mapping(t_uint256,t_struct(Pledge)135_storage)": {
        "encoding": "mapping",
        "key": "t_uint256",
        "label": "mapping(uint256 => struct YourContract.Pledge)",
        "numberOfBytes": "32",
        "value": "t_struct(Pledge)135_storage"
      },
      "t_string_storage": {
        "encoding": "bytes",
        "label": "string",
        "numberOfBytes": "32"
      },
      "t_struct(NGO)92_storage": {
        "encoding": "inplace",
        "label": "struct YourContract.NGO",
        "members": [
          {
            "astId": 83,
            "contract": "contracts/YourContract.sol:YourContract",
            "label": "name",
            "offset": 0,
            "slot": "0",
            "type": "t_string_storage"
          },
          {
            "astId": 85,
            "contract": "contracts/YourContract.sol:YourContract",
            "label": "owner",
            "offset": 0,
            "slot": "1",
            "type": "t_address"
          },
          {
            "astId": 87,
            "contract": "contracts/YourContract.sol:YourContract",
            "label": "reputation",
            "offset": 0,
            "slot": "2",
            "type": "t_uint256"
          },
          {
            "astId": 89,
            "contract": "contracts/YourContract.sol:YourContract",
            "label": "isRegistered",
            "offset": 0,
            "slot": "3",
            "type": "t_bool"
          },
          {
            "astId": 91,
            "contract": "contracts/YourContract.sol:YourContract",
            "label": "totalRaisedByNgo",
            "offset": 0,
            "slot": "4",
            "type": "t_uint256"
          }
        ],
        "numberOfBytes": "160"
      },
      "t_struct(Pledge)135_storage": {
        "encoding": "inplace",
        "label": "struct YourContract.Pledge",
        "members": [
          {
            "astId": 120,
            "contract": "contracts/YourContract.sol:YourContract",
            "label": "pledgeId",
            "offset": 0,
            "slot": "0",
            "type": "t_uint256"
          },
          {
            "astId": 122,
            "contract": "contracts/YourContract.sol:YourContract",
            "label": "donor",
            "offset": 0,
            "slot": "1",
            "type": "t_address"
          },
          {
            "astId": 124,
            "contract": "contracts/YourContract.sol:YourContract",
            "label": "token",
            "offset": 0,
            "slot": "2",
            "type": "t_address"
          },
          {
            "astId": 126,
            "contract": "contracts/YourContract.sol:YourContract",
            "label": "amount",
            "offset": 0,
            "slot": "3",
            "type": "t_uint256"
          },
          {
            "astId": 128,
            "contract": "contracts/YourContract.sol:YourContract",
            "label": "ngoAddress",
            "offset": 0,
            "slot": "4",
            "type": "t_address"
          },
          {
            "astId": 130,
            "contract": "contracts/YourContract.sol:YourContract",
            "label": "minReputation",
            "offset": 0,
            "slot": "5",
            "type": "t_uint256"
          },
          {
            "astId": 132,
            "contract": "contracts/YourContract.sol:YourContract",
            "label": "postId",
            "offset": 0,
            "slot": "6",
            "type": "t_uint256"
          },
          {
            "astId": 134,
            "contract": "contracts/YourContract.sol:YourContract",
            "label": "isActive",
            "offset": 0,
            "slot": "7",
            "type": "t_bool"
          }
        ],
        "numberOfBytes": "256"
      },
      "t_struct(Post)103_storage": {
        "encoding": "inplace",
        "label": "struct YourContract.Post",
        "members": [
          {
            "astId": 94,
            "contract": "contracts/YourContract.sol:YourContract",
            "label": "postId",
            "offset": 0,
            "slot": "0",
            "type": "t_uint256"
          },
          {
            "astId": 96,
            "contract": "contracts/YourContract.sol:YourContract",
            "label": "ngoOwner",
            "offset": 0,
            "slot": "1",
            "type": "t_address"
          },
          {
            "astId": 98,
            "contract": "contracts/YourContract.sol:YourContract",
            "label": "contentUrl",
            "offset": 0,
            "slot": "2",
            "type": "t_string_storage"
          },
          {
            "astId": 100,
            "contract": "contracts/YourContract.sol:YourContract",
            "label": "likeCount",
            "offset": 0,
            "slot": "3",
            "type": "t_uint256"
          },
          {
            "astId": 102,
            "contract": "contracts/YourContract.sol:YourContract",
            "label": "totalDonated",
            "offset": 0,
            "slot": "4",
            "type": "t_uint256"
          }
        ],
        "numberOfBytes": "160"
      },
      "t_uint256": {
        "encoding": "inplace",
        "label": "uint256",
        "numberOfBytes": "32"
      }
    }
  }
}