{
  "address": "0xdCdaE8A5Ce8c511530C2A808A8E6E7050867394A",
  "abi": [
    {
      "anonymous": false,
      "inputs": [
        {
          "indexed": true,
          "internalType": "address",
          "name": "ngoAddress",
          "type": "address"
        },
        {
          "indexed": false,
          "internalType": "string",
          "name": "newName",
          "type": "string"
        }
      ],
      "name": "NGOProfileUpdated",
      "type": "event"
    },
    {
      "anonymous": false,
      "inputs": [
        {
          "indexed": true,
          "internalType": "address",
          "name": "ngoAddress",
          "type": "address"
        },
        {
          "indexed": false,
          "internalType": "string",
          "name": "name",
          "type": "string"
        }
      ],
      "name": "NGORegistered",
      "type": "event"
    },
    {
      "anonymous": false,
      "inputs": [
        {
          "indexed": true,
          "internalType": "uint256",
          "name": "postId",
          "type": "uint256"
        },
        {
          "indexed": true,
          "internalType": "address",
          "name": "ngoAddress",
          "type": "address"
        },
        {
          "indexed": false,
          "internalType": "string",
          "name": "contentUrl",
          "type": "string"
        }
      ],
      "name": "PostCreated",
      "type": "event"
    },
    {
      "anonymous": false,
      "inputs": [
        {
          "indexed": true,
          "internalType": "uint256",
          "name": "postId",
          "type": "uint256"
        },
        {
          "indexed": true,
          "internalType": "address",
          "name": "donator",
          "type": "address"
        },
        {
          "indexed": false,
          "internalType": "uint256",
          "name": "amount",
          "type": "uint256"
        }
      ],
      "name": "PostDonated",
      "type": "event"
    },
    {
      "anonymous": false,
      "inputs": [
        {
          "indexed": true,
          "internalType": "uint256",
          "name": "postId",
          "type": "uint256"
        },
        {
          "indexed": true,
          "internalType": "address",
          "name": "liker",
          "type": "address"
        },
        {
          "indexed": false,
          "internalType": "uint256",
          "name": "newLikeCount",
          "type": "uint256"
        }
      ],
      "name": "PostLiked",
      "type": "event"
    },
    {
      "inputs": [
        {
          "internalType": "uint256",
          "name": "",
          "type": "uint256"
        }
      ],
      "name": "allPosts",
      "outputs": [
        {
          "internalType": "uint256",
          "name": "postId",
          "type": "uint256"
        },
        {
          "internalType": "address",
          "name": "ngoOwner",
          "type": "address"
        },
        {
          "internalType": "string",
          "name": "contentUrl",
          "type": "string"
        },
        {
          "internalType": "uint256",
          "name": "likeCount",
          "type": "uint256"
        },
        {
          "internalType": "uint256",
          "name": "totalDonated",
          "type": "uint256"
        }
      ],
      "stateMutability": "view",
      "type": "function"
    },
    {
      "inputs": [
        {
          "internalType": "string",
          "name": "_contentUrl",
          "type": "string"
        }
      ],
      "name": "createPost",
      "outputs": [],
      "stateMutability": "nonpayable",
      "type": "function"
    },
    {
      "inputs": [
        {
          "internalType": "uint256",
          "name": "_postId",
          "type": "uint256"
        }
      ],
      "name": "donateToPost",
      "outputs": [],
      "stateMutability": "payable",
      "type": "function"
    },
    {
      "inputs": [
        {
          "internalType": "address",
          "name": "_ngoOwner",
          "type": "address"
        }
      ],
      "name": "getNgoPostIds",
      "outputs": [
        {
          "internalType": "uint256[]",
          "name": "",
          "type": "uint256[]"
        }
      ],
      "stateMutability": "view",
      "type": "function"
    },
    {
      "inputs": [],
      "name": "getPostCount",
      "outputs": [
        {
          "internalType": "uint256",
          "name": "",
          "type": "uint256"
        }
      ],
      "stateMutability": "view",
      "type": "function"
    },
    {
      "inputs": [
        {
          "internalType": "uint256",
          "name": "_postId",
          "type": "uint256"
        }
      ],
      "name": "getPostDetails",
      "outputs": [
        {
          "components": [
            {
              "internalType": "uint256",
              "name": "postId",
              "type": "uint256"
            },
            {
              "internalType": "address",
              "name": "ngoOwner",
              "type": "address"
            },
            {
              "internalType": "string",
              "name": "contentUrl",
              "type": "string"
            },
            {
              "internalType": "uint256",
              "name": "likeCount",
              "type": "uint256"
            },
            {
              "internalType": "uint256",
              "name": "totalDonated",
              "type": "uint256"
            },
            {
              "internalType": "string",
              "name": "ngoName",
              "type": "string"
            },
            {
              "internalType": "uint256",
              "name": "ngoReputation",
              "type": "uint256"
            }
          ],
          "internalType": "struct YourContract.PostWithNgoDetails",
          "name": "",
          "type": "tuple"
        }
      ],
      "stateMutability": "view",
      "type": "function"
    },
    {
      "inputs": [
        {
          "internalType": "uint256",
          "name": "",
          "type": "uint256"
        },
        {
          "internalType": "address",
          "name": "",
          "type": "address"
        }
      ],
      "name": "hasLiked",
      "outputs": [
        {
          "internalType": "bool",
          "name": "",
          "type": "bool"
        }
      ],
      "stateMutability": "view",
      "type": "function"
    },
    {
      "inputs": [
        {
          "internalType": "uint256",
          "name": "_postId",
          "type": "uint256"
        }
      ],
      "name": "likePost",
      "outputs": [],
      "stateMutability": "nonpayable",
      "type": "function"
    },
    {
      "inputs": [
        {
          "internalType": "address",
          "name": "",
          "type": "address"
        },
        {
          "internalType": "uint256",
          "name": "",
          "type": "uint256"
        }
      ],
      "name": "ngoPosts",
      "outputs": [
        {
          "internalType": "uint256",
          "name": "",
          "type": "uint256"
        }
      ],
      "stateMutability": "view",
      "type": "function"
    },
    {
      "inputs": [
        {
          "internalType": "address",
          "name": "",
          "type": "address"
        }
      ],
      "name": "ngos",
      "outputs": [
        {
          "internalType": "string",
          "name": "name",
          "type": "string"
        },
        {
          "internalType": "address",
          "name": "owner",
          "type": "address"
        },
        {
          "internalType": "uint256",
          "name": "reputation",
          "type": "uint256"
        },
        {
          "internalType": "bool",
          "name": "isRegistered",
          "type": "bool"
        },
        {
          "internalType": "uint256",
          "name": "totalRaisedByNgo",
          "type": "uint256"
        }
      ],
      "stateMutability": "view",
      "type": "function"
    },
    {
      "inputs": [
        {
          "internalType": "string",
          "name": "_name",
          "type": "string"
        }
      ],
      "name": "registerNGO",
      "outputs": [],
      "stateMutability": "nonpayable",
      "type": "function"
    },
    {
      "inputs": [
        {
          "internalType": "string",
          "name": "_newName",
          "type": "string"
        }
      ],
      "name": "updateNGOName",
      "outputs": [],
      "stateMutability": "nonpayable",
      "type": "function"
    }
  ],
  "transactionHash": "0x3def49262cb43c5c73d45db226ad1c6e96d92d7b51a0c7448b8250ca453d2cf5",
  "args": [],
  "numDeployments": 5,
  "solcInputHash": "cc58db41e5f7b0ce9b11e3d10380f121",
  "bytecode": "0x608060405234801561001057600080fd5b506112c8806100206000396000f3fe6080604052600436106100a75760003560e01c8063b68603b611610064578063b68603b6146101d7578063bcc95407146101ea578063c7303c61146101ff578063c8c7b16c1461021f578063dea5eae81461023f578063e6f7d11e1461025f57600080fd5b80634f2be189146100ac57806355c84639146100df578063718ce2bc1461010c578063725009d31461013d5780638fb7092c1461015f5780639fc226f4146101aa575b600080fd5b3480156100b857600080fd5b506100cc6100c7366004610def565b610290565b6040519081526020015b60405180910390f35b3480156100eb57600080fd5b506100ff6100fa366004610e19565b6102c1565b6040516100d69190610e3b565b34801561011857600080fd5b5061012c610127366004610e7f565b61032d565b6040516100d6959493929190610ede565b34801561014957600080fd5b5061015d610158366004610e7f565b610402565b005b34801561016b57600080fd5b5061019a61017a366004610f1c565b600260209081526000928352604080842090915290825290205460ff1681565b60405190151581526020016100d6565b3480156101b657600080fd5b506101ca6101c5366004610e7f565b610589565b6040516100d69190610f48565b61015d6101e5366004610e7f565b610799565b3480156101f657600080fd5b506001546100cc565b34801561020b57600080fd5b5061015d61021a366004610fdf565b61095c565b34801561022b57600080fd5b5061015d61023a366004610fdf565b610b15565b34801561024b57600080fd5b5061015d61025a366004610fdf565b610c4e565b34801561026b57600080fd5b5061027f61027a366004610e19565b610d0c565b6040516100d6959493929190611090565b600360205281600052604060002081815481106102ac57600080fd5b90600052602060002001600091509150505481565b6001600160a01b03811660009081526003602090815260409182902080548351818402810184019094528084526060939283018282801561032157602002820191906000526020600020905b81548152602001906001019080831161030d575b50505050509050919050565b6001818154811061033d57600080fd5b60009182526020909120600590910201805460018201546002830180549294506001600160a01b039091169291610373906110d0565b80601f016020809104026020016040519081016040528092919081815260200182805461039f906110d0565b80156103ec5780601f106103c1576101008083540402835291602001916103ec565b820191906000526020600020905b8154815290600101906020018083116103cf57829003601f168201915b5050505050908060030154908060040154905085565b6001543390821061042e5760405162461bcd60e51b81526004016104259061110a565b60405180910390fd5b60008281526002602090815260408083206001600160a01b038516845290915290205460ff16156104a15760405162461bcd60e51b815260206004820152601860248201527f566f6365206a6120637572746975206573746520706f737400000000000000006044820152606401610425565b6000600183815481106104b6576104b6611133565b600091825260208083206001600590930201828101546001600160a01b039081168552848352604080862089875260028552818720928916875291909352918420805460ff191684179055600381018054919550919390610518908490611149565b9250508190555060018160020160008282546105349190611149565b92505081905550826001600160a01b0316847fdfb8e3561bacb6caea7f0960d425956921b9147a631b6e857325c39911ee7e3b846003015460405161057b91815260200190565b60405180910390a350505050565b6105d26040518060e001604052806000815260200160006001600160a01b0316815260200160608152602001600081526020016000815260200160608152602001600081525090565b60015482106105f35760405162461bcd60e51b81526004016104259061110a565b60006001838154811061060857610608611133565b6000918252602080832060059290920290910160018101546001600160a01b0316808452838352604093849020845160e0810186528354815293840191909152600282018054929550909383019161065f906110d0565b80601f016020809104026020016040519081016040528092919081815260200182805461068b906110d0565b80156106d85780601f106106ad576101008083540402835291602001916106d8565b820191906000526020600020905b8154815290600101906020018083116106bb57829003601f168201915b505050505081526020018360030154815260200183600401548152602001826000018054610705906110d0565b80601f0160208091040260200160405190810160405280929190818152602001828054610731906110d0565b801561077e5780601f106107535761010080835404028352916020019161077e565b820191906000526020600020905b81548152906001019060200180831161076157829003601f168201915b50505050508152602001826002015481525092505050919050565b60015481106107ba5760405162461bcd60e51b81526004016104259061110a565b6000341161080a5760405162461bcd60e51b815260206004820152601f60248201527f566f6365206465766520656e7669617220616c67756d61207175616e746961006044820152606401610425565b60006001828154811061081f5761081f611133565b90600052602060002090600502019050348160040160008282546108439190611149565b909155505060018101546001600160a01b0316600090815260208190526040812060048101805491923492610879908490611149565b909155505060018201546040516001600160a01b0390911690600090829034908381818185875af1925050503d80600081146108d1576040519150601f19603f3d011682016040523d82523d6000602084013e6108d6565b606091505b505090508061091e5760405162461bcd60e51b81526020600482015260146024820152735472616e73666572656e6369612066616c686f7560601b6044820152606401610425565b604051348152339086907f9a51943191e4da7412a24fb127185e4543f4145c53cfbb5b737e724c3ed76c149060200160405180910390a35050505050565b3360008181526020819052604090206003015460ff166109be5760405162461bcd60e51b815260206004820152601d60248201527f566f6365206e616f206520756d61204f4e4720726567697374726164610000006044820152606401610425565b600180546040805160a0810182528281526001600160a01b03858116602083019081529282018781526000606084018190526080840181905285870187559590955281517fb10e2d527612073b26eecdfd717e6a320cf44b4afac2b0732d9fcbe2b7fa0cf66005860290810191825593517fb10e2d527612073b26eecdfd717e6a320cf44b4afac2b0732d9fcbe2b7fa0cf7850180546001600160a01b031916919093161790915593519293909283927fb10e2d527612073b26eecdfd717e6a320cf44b4afac2b0732d9fcbe2b7fa0cf80190610a9b90826111bf565b5060608201516003808301919091556080909201516004909101556001600160a01b038416600081815260209283526040808220805460018101825590835293909120909201849055905183907f8e40a51278abe2f4b410c0a96ff0bdd024b22666ca334062bf72afd596984bd69061057b90889061127f565b3360008181526020819052604090206003015460ff1615610b6c5760405162461bcd60e51b81526020600482015260116024820152704f4e47206a61207265676973747261646160781b6044820152606401610425565b6040805160a0810182528381526001600160a01b0383166020808301829052600083850181905260016060850152608084018190529182528190529190912081518190610bb990826111bf565b5060208201516001820180546001600160a01b0319166001600160a01b039283161790556040808401516002840155606084015160038401805460ff19169115159190911790556080909301516004909201919091559051908216907f0386741c0345c35e0430ddfe5fee0c0afbfad9de0f6c1f1ece8021927c2f732090610c4290859061127f565b60405180910390a25050565b3360008181526020819052604090206003015460ff16610cb05760405162461bcd60e51b815260206004820152601d60248201527f566f6365206e616f206520756d61204f4e4720726567697374726164610000006044820152606401610425565b6001600160a01b0381166000908152602081905260409020610cd283826111bf565b50806001600160a01b03167fce9c7090b150017d47ccdac62dbca452828cb7b68b3d56804a133ab7602e328783604051610c42919061127f565b600060208190529081526040902080548190610d27906110d0565b80601f0160208091040260200160405190810160405280929190818152602001828054610d53906110d0565b8015610da05780601f10610d7557610100808354040283529160200191610da0565b820191906000526020600020905b815481529060010190602001808311610d8357829003601f168201915b50505060018401546002850154600386015460049096015494956001600160a01b039092169490935060ff909116915085565b80356001600160a01b0381168114610dea57600080fd5b919050565b60008060408385031215610e0257600080fd5b610e0b83610dd3565b946020939093013593505050565b600060208284031215610e2b57600080fd5b610e3482610dd3565b9392505050565b6020808252825182820181905260009190848201906040850190845b81811015610e7357835183529284019291840191600101610e57565b50909695505050505050565b600060208284031215610e9157600080fd5b5035919050565b6000815180845260005b81811015610ebe57602081850181015186830182015201610ea2565b506000602082860101526020601f19601f83011685010191505092915050565b8581526001600160a01b038516602082015260a060408201819052600090610f0890830186610e98565b606083019490945250608001529392505050565b60008060408385031215610f2f57600080fd5b82359150610f3f60208401610dd3565b90509250929050565b602081528151602082015260018060a01b0360208301511660408201526000604083015160e06060840152610f81610100840182610e98565b905060608401516080840152608084015160a084015260a0840151601f198483030160c0850152610fb28282610e98565b91505060c084015160e08401528091505092915050565b634e487b7160e01b600052604160045260246000fd5b600060208284031215610ff157600080fd5b813567ffffffffffffffff8082111561100957600080fd5b818401915084601f83011261101d57600080fd5b81358181111561102f5761102f610fc9565b604051601f8201601f19908116603f0116810190838211818310171561105757611057610fc9565b8160405282815287602084870101111561107057600080fd5b826020860160208301376000928101602001929092525095945050505050565b60a0815260006110a360a0830188610e98565b6001600160a01b039690961660208301525060408101939093529015156060830152608090910152919050565b600181811c908216806110e457607f821691505b60208210810361110457634e487b7160e01b600052602260045260246000fd5b50919050565b6020808252600f908201526e506f7374206e616f2065786973746560881b604082015260600190565b634e487b7160e01b600052603260045260246000fd5b8082018082111561116a57634e487b7160e01b600052601160045260246000fd5b92915050565b601f8211156111ba57600081815260208120601f850160051c810160208610156111975750805b601f850160051c820191505b818110156111b6578281556001016111a3565b5050505b505050565b815167ffffffffffffffff8111156111d9576111d9610fc9565b6111ed816111e784546110d0565b84611170565b602080601f831160018114611222576000841561120a5750858301515b600019600386901b1c1916600185901b1785556111b6565b600085815260208120601f198616915b8281101561125157888601518255948401946001909101908401611232565b508582101561126f5787850151600019600388901b60f8161c191681555b5050505050600190811b01905550565b602081526000610e346020830184610e9856fea2646970667358221220b24c2634e2aadaa9c284782b56597bb4a25427398a7633f444dcaeb6c4569cd164736f6c63430008140033",
  "devdoc": {
    "kind": "dev",
    "methods": {},
    "version": 1
  },
  "userdoc": {
    "kind": "user",
    "methods": {},
    "version": 1
  },
  "storageLayout": {
    "storage": [
      {
        "astId": 44,
        "contract": "contracts/YourContract.sol:YourContract",
        "label": "ngos",
        "offset": 0,
        "slot": "0",
        "type": "t_mapping(t_address,t_struct(NGO)13_storage)"
      },
      {
        "astId": 48,
        "contract": "contracts/YourContract.sol:YourContract",
        "label": "allPosts",
        "offset": 0,
        "slot": "1",
        "type": "t_array(t_struct(Post)24_storage)dyn_storage"
      },
      {
        "astId": 54,
        "contract": "contracts/YourContract.sol:YourContract",
        "label": "hasLiked",
        "offset": 0,
        "slot": "2",
        "type": "t_mapping(t_uint256,t_mapping(t_address,t_bool))"
      },
      {
        "astId": 59,
        "contract": "contracts/YourContract.sol:YourContract",
        "label": "ngoPosts",
        "offset": 0,
        "slot": "3",
        "type": "t_mapping(t_address,t_array(t_uint256)dyn_storage)"
      }
    ],
    "types": {
      "t_address": {
        "encoding": "inplace",
        "label": "address",
        "numberOfBytes": "20"
      },
      "t_array(t_struct(Post)24_storage)dyn_storage": {
        "base": "t_struct(Post)24_storage",
        "encoding": "dynamic_array",
        "label": "struct YourContract.Post[]",
        "numberOfBytes": "32"
      },
      "t_array(t_uint256)dyn_storage": {
        "base": "t_uint256",
        "encoding": "dynamic_array",
        "label": "uint256[]",
        "numberOfBytes": "32"
      },
      "t_bool": {
        "encoding": "inplace",
        "label": "bool",
        "numberOfBytes": "1"
      },
      "t_mapping(t_address,t_array(t_uint256)dyn_storage)": {
        "encoding": "mapping",
        "key": "t_address",
        "label": "mapping(address => uint256[])",
        "numberOfBytes": "32",
        "value": "t_array(t_uint256)dyn_storage"
      },
      "t_mapping(t_address,t_bool)": {
        "encoding": "mapping",
        "key": "t_address",
        "label": "mapping(address => bool)",
        "numberOfBytes": "32",
        "value": "t_bool"
      },
      "t_mapping(t_address,t_struct(NGO)13_storage)": {
        "encoding": "mapping",
        "key": "t_address",
        "label": "mapping(address => struct YourContract.NGO)",
        "numberOfBytes": "32",
        "value": "t_struct(NGO)13_storage"
      },
      "t_mapping(t_uint256,t_mapping(t_address,t_bool))": {
        "encoding": "mapping",
        "key": "t_uint256",
        "label": "mapping(uint256 => mapping(address => bool))",
        "numberOfBytes": "32",
        "value": "t_mapping(t_address,t_bool)"
      },
      "t_string_storage": {
        "encoding": "bytes",
        "label": "string",
        "numberOfBytes": "32"
      },
      "t_struct(NGO)13_storage": {
        "encoding": "inplace",
        "label": "struct YourContract.NGO",
        "members": [
          {
            "astId": 4,
            "contract": "contracts/YourContract.sol:YourContract",
            "label": "name",
            "offset": 0,
            "slot": "0",
            "type": "t_string_storage"
          },
          {
            "astId": 6,
            "contract": "contracts/YourContract.sol:YourContract",
            "label": "owner",
            "offset": 0,
            "slot": "1",
            "type": "t_address"
          },
          {
            "astId": 8,
            "contract": "contracts/YourContract.sol:YourContract",
            "label": "reputation",
            "offset": 0,
            "slot": "2",
            "type": "t_uint256"
          },
          {
            "astId": 10,
            "contract": "contracts/YourContract.sol:YourContract",
            "label": "isRegistered",
            "offset": 0,
            "slot": "3",
            "type": "t_bool"
          },
          {
            "astId": 12,
            "contract": "contracts/YourContract.sol:YourContract",
            "label": "totalRaisedByNgo",
            "offset": 0,
            "slot": "4",
            "type": "t_uint256"
          }
        ],
        "numberOfBytes": "160"
      },
      "t_struct(Post)24_storage": {
        "encoding": "inplace",
        "label": "struct YourContract.Post",
        "members": [
          {
            "astId": 15,
            "contract": "contracts/YourContract.sol:YourContract",
            "label": "postId",
            "offset": 0,
            "slot": "0",
            "type": "t_uint256"
          },
          {
            "astId": 17,
            "contract": "contracts/YourContract.sol:YourContract",
            "label": "ngoOwner",
            "offset": 0,
            "slot": "1",
            "type": "t_address"
          },
          {
            "astId": 19,
            "contract": "contracts/YourContract.sol:YourContract",
            "label": "contentUrl",
            "offset": 0,
            "slot": "2",
            "type": "t_string_storage"
          },
          {
            "astId": 21,
            "contract": "contracts/YourContract.sol:YourContract",
            "label": "likeCount",
            "offset": 0,
            "slot": "3",
            "type": "t_uint256"
          },
          {
            "astId": 23,
            "contract": "contracts/YourContract.sol:YourContract",
            "label": "totalDonated",
            "offset": 0,
            "slot": "4",
            "type": "t_uint256"
          }
        ],
        "numberOfBytes": "160"
      },
      "t_uint256": {
        "encoding": "inplace",
        "label": "uint256",
        "numberOfBytes": "32"
      }
    }
  }
}