{
  "address": "0xC8501b28F495C6543434aF41ACA20cA497F7B259",
  "abi": [
    {
      "anonymous": false,
      "inputs": [
        {
          "indexed": true,
          "internalType": "address",
          "name": "ngoAddress",
          "type": "address"
        },
        {
          "indexed": false,
          "internalType": "string",
          "name": "name",
          "type": "string"
        }
      ],
      "name": "NGORegistered",
      "type": "event"
    },
    {
      "anonymous": false,
      "inputs": [
        {
          "indexed": true,
          "internalType": "uint256",
          "name": "postId",
          "type": "uint256"
        },
        {
          "indexed": true,
          "internalType": "address",
          "name": "ngoAddress",
          "type": "address"
        },
        {
          "indexed": false,
          "internalType": "string",
          "name": "contentUrl",
          "type": "string"
        }
      ],
      "name": "PostCreated",
      "type": "event"
    },
    {
      "anonymous": false,
      "inputs": [
        {
          "indexed": true,
          "internalType": "uint256",
          "name": "postId",
          "type": "uint256"
        },
        {
          "indexed": true,
          "internalType": "address",
          "name": "donator",
          "type": "address"
        },
        {
          "indexed": false,
          "internalType": "uint256",
          "name": "amount",
          "type": "uint256"
        }
      ],
      "name": "PostDonated",
      "type": "event"
    },
    {
      "anonymous": false,
      "inputs": [
        {
          "indexed": true,
          "internalType": "uint256",
          "name": "postId",
          "type": "uint256"
        },
        {
          "indexed": true,
          "internalType": "address",
          "name": "liker",
          "type": "address"
        },
        {
          "indexed": false,
          "internalType": "uint256",
          "name": "newLikeCount",
          "type": "uint256"
        }
      ],
      "name": "PostLiked",
      "type": "event"
    },
    {
      "inputs": [
        {
          "internalType": "uint256",
          "name": "",
          "type": "uint256"
        }
      ],
      "name": "allPosts",
      "outputs": [
        {
          "internalType": "uint256",
          "name": "postId",
          "type": "uint256"
        },
        {
          "internalType": "address",
          "name": "ngoOwner",
          "type": "address"
        },
        {
          "internalType": "string",
          "name": "contentUrl",
          "type": "string"
        },
        {
          "internalType": "uint256",
          "name": "likeCount",
          "type": "uint256"
        },
        {
          "internalType": "uint256",
          "name": "totalDonated",
          "type": "uint256"
        }
      ],
      "stateMutability": "view",
      "type": "function"
    },
    {
      "inputs": [
        {
          "internalType": "string",
          "name": "_contentUrl",
          "type": "string"
        }
      ],
      "name": "createPost",
      "outputs": [],
      "stateMutability": "nonpayable",
      "type": "function"
    },
    {
      "inputs": [
        {
          "internalType": "uint256",
          "name": "_postId",
          "type": "uint256"
        }
      ],
      "name": "donateToPost",
      "outputs": [],
      "stateMutability": "payable",
      "type": "function"
    },
    {
      "inputs": [
        {
          "internalType": "uint256",
          "name": "",
          "type": "uint256"
        },
        {
          "internalType": "address",
          "name": "",
          "type": "address"
        }
      ],
      "name": "hasLiked",
      "outputs": [
        {
          "internalType": "bool",
          "name": "",
          "type": "bool"
        }
      ],
      "stateMutability": "view",
      "type": "function"
    },
    {
      "inputs": [
        {
          "internalType": "uint256",
          "name": "_postId",
          "type": "uint256"
        }
      ],
      "name": "likePost",
      "outputs": [],
      "stateMutability": "nonpayable",
      "type": "function"
    },
    {
      "inputs": [
        {
          "internalType": "address",
          "name": "",
          "type": "address"
        }
      ],
      "name": "ngos",
      "outputs": [
        {
          "internalType": "string",
          "name": "name",
          "type": "string"
        },
        {
          "internalType": "address",
          "name": "owner",
          "type": "address"
        },
        {
          "internalType": "uint256",
          "name": "reputation",
          "type": "uint256"
        },
        {
          "internalType": "bool",
          "name": "isRegistered",
          "type": "bool"
        }
      ],
      "stateMutability": "view",
      "type": "function"
    },
    {
      "inputs": [
        {
          "internalType": "string",
          "name": "_name",
          "type": "string"
        }
      ],
      "name": "registerNGO",
      "outputs": [],
      "stateMutability": "nonpayable",
      "type": "function"
    }
  ],
  "transactionHash": "0x5c3096150c8f315f3b131ae3893c5c1ee3adb1c8df7cc054bb6e56d97d7aa707",
  "args": [],
  "numDeployments": 1,
  "solcInputHash": "f525ffc9a146620b23800f4f1a126c86",
  "bytecode": "0x608060405234801561001057600080fd5b50610d0a806100206000396000f3fe6080604052600436106100705760003560e01c8063b68603b61161004e578063b68603b61461011c578063c7303c611461012f578063c8c7b16c1461014f578063e6f7d11e1461016f57600080fd5b8063718ce2bc14610075578063725009d3146100af5780638fb7092c146100d1575b600080fd5b34801561008157600080fd5b50610095610090366004610933565b61019f565b6040516100a6959493929190610992565b60405180910390f35b3480156100bb57600080fd5b506100cf6100ca366004610933565b610274565b005b3480156100dd57600080fd5b5061010c6100ec3660046109ec565b600260209081526000928352604080842090915290825290205460ff1681565b60405190151581526020016100a6565b6100cf61012a366004610933565b610419565b34801561013b57600080fd5b506100cf61014a366004610a2e565b6105be565b34801561015b57600080fd5b506100cf61016a366004610a2e565b61074e565b34801561017b57600080fd5b5061018f61018a366004610adf565b610874565b6040516100a69493929190610b01565b600181815481106101af57600080fd5b60009182526020909120600590910201805460018201546002830180549294506001600160a01b0390911692916101e590610b3b565b80601f016020809104026020016040519081016040528092919081815260200182805461021190610b3b565b801561025e5780601f106102335761010080835404028352916020019161025e565b820191906000526020600020905b81548152906001019060200180831161024157829003601f168201915b5050505050908060030154908060040154905085565b600154339082106102be5760405162461bcd60e51b815260206004820152600f60248201526e506f7374206e616f2065786973746560881b60448201526064015b60405180910390fd5b60008281526002602090815260408083206001600160a01b038516845290915290205460ff16156103315760405162461bcd60e51b815260206004820152601860248201527f566f6365206a6120637572746975206573746520706f7374000000000000000060448201526064016102b5565b60006001838154811061034657610346610b75565b600091825260208083206001600590930201828101546001600160a01b039081168552848352604080862089875260028552818720928916875291909352918420805460ff1916841790556003810180549195509193906103a8908490610b8b565b9250508190555060018160020160008282546103c49190610b8b565b92505081905550826001600160a01b0316847fdfb8e3561bacb6caea7f0960d425956921b9147a631b6e857325c39911ee7e3b846003015460405161040b91815260200190565b60405180910390a350505050565b600154811061045c5760405162461bcd60e51b815260206004820152600f60248201526e506f7374206e616f2065786973746560881b60448201526064016102b5565b600034116104ac5760405162461bcd60e51b815260206004820152601f60248201527f566f6365206465766520656e7669617220616c67756d61207175616e7469610060448201526064016102b5565b6000600182815481106104c1576104c1610b75565b90600052602060002090600502019050348160040160008282546104e59190610b8b565b909155505060018101546040516001600160a01b0390911690600090829034908381818185875af1925050503d806000811461053d576040519150601f19603f3d011682016040523d82523d6000602084013e610542565b606091505b505090508061058a5760405162461bcd60e51b81526020600482015260146024820152735472616e73666572656e6369612066616c686f7560601b60448201526064016102b5565b604051348152339085907f9a51943191e4da7412a24fb127185e4543f4145c53cfbb5b737e724c3ed76c149060200161040b565b3360008181526020819052604090206003015460ff166106205760405162461bcd60e51b815260206004820152601d60248201527f566f6365206e616f206520756d61204f4e47207265676973747261646100000060448201526064016102b5565b600180546040805160a0810182528281526001600160a01b03858116602083019081529282018781526000606084018190526080840181905285870187559590955281517fb10e2d527612073b26eecdfd717e6a320cf44b4afac2b0732d9fcbe2b7fa0cf66005860290810191825593517fb10e2d527612073b26eecdfd717e6a320cf44b4afac2b0732d9fcbe2b7fa0cf7850180546001600160a01b031916919093161790915593519293909283927fb10e2d527612073b26eecdfd717e6a320cf44b4afac2b0732d9fcbe2b7fa0cf801906106fd9082610c01565b5060608201518160030155608082015181600401555050826001600160a01b0316827f8e40a51278abe2f4b410c0a96ff0bdd024b22666ca334062bf72afd596984bd68660405161040b9190610cc1565b3360008181526020819052604090206003015460ff16156107a55760405162461bcd60e51b81526020600482015260116024820152704f4e47206a61207265676973747261646160781b60448201526064016102b5565b604080516080810182528381526001600160a01b038316602080830182905260008385018190526001606085015291825281905291909120815181906107eb9082610c01565b5060208201516001820180546001600160a01b0319166001600160a01b0392831617905560408084015160028401556060909301516003909201805460ff1916921515929092179091559051908216907f0386741c0345c35e0430ddfe5fee0c0afbfad9de0f6c1f1ece8021927c2f732090610868908590610cc1565b60405180910390a25050565b60006020819052908152604090208054819061088f90610b3b565b80601f01602080910402602001604051908101604052809291908181526020018280546108bb90610b3b565b80156109085780601f106108dd57610100808354040283529160200191610908565b820191906000526020600020905b8154815290600101906020018083116108eb57829003601f168201915b505050506001830154600284015460039094015492936001600160a01b039091169290915060ff1684565b60006020828403121561094557600080fd5b5035919050565b6000815180845260005b8181101561097257602081850181015186830182015201610956565b506000602082860101526020601f19601f83011685010191505092915050565b8581526001600160a01b038516602082015260a0604082018190526000906109bc9083018661094c565b606083019490945250608001529392505050565b80356001600160a01b03811681146109e757600080fd5b919050565b600080604083850312156109ff57600080fd5b82359150610a0f602084016109d0565b90509250929050565b634e487b7160e01b600052604160045260246000fd5b600060208284031215610a4057600080fd5b813567ffffffffffffffff80821115610a5857600080fd5b818401915084601f830112610a6c57600080fd5b813581811115610a7e57610a7e610a18565b604051601f8201601f19908116603f01168101908382118183101715610aa657610aa6610a18565b81604052828152876020848701011115610abf57600080fd5b826020860160208301376000928101602001929092525095945050505050565b600060208284031215610af157600080fd5b610afa826109d0565b9392505050565b608081526000610b14608083018761094c565b6001600160a01b039590951660208301525060408101929092521515606090910152919050565b600181811c90821680610b4f57607f821691505b602082108103610b6f57634e487b7160e01b600052602260045260246000fd5b50919050565b634e487b7160e01b600052603260045260246000fd5b80820180821115610bac57634e487b7160e01b600052601160045260246000fd5b92915050565b601f821115610bfc57600081815260208120601f850160051c81016020861015610bd95750805b601f850160051c820191505b81811015610bf857828155600101610be5565b5050505b505050565b815167ffffffffffffffff811115610c1b57610c1b610a18565b610c2f81610c298454610b3b565b84610bb2565b602080601f831160018114610c645760008415610c4c5750858301515b600019600386901b1c1916600185901b178555610bf8565b600085815260208120601f198616915b82811015610c9357888601518255948401946001909101908401610c74565b5085821015610cb15787850151600019600388901b60f8161c191681555b5050505050600190811b01905550565b602081526000610afa602083018461094c56fea264697066735822122077d3bf0bf01e95999006e323c69c310d9b3b4a376a058a909080db19b1fe548d64736f6c63430008140033",
  "devdoc": {
    "kind": "dev",
    "methods": {
      "createPost(string)": {
        "details": "Permite que uma ONG registrada crie um novo post. '_contentUrl'  o link para a foto/descrio (ex: \"ipfs://...\")"
      },
      "donateToPost(uint256)": {
        "details": "Permite que qualquer usurio envie ETH (doao) para um post. 'payable'  o que permite a funo receber cripto."
      },
      "likePost(uint256)": {
        "details": "Permite que qualquer usurio curta um post. '_postId'  o ID (nmero) do post que est sendo curtido."
      },
      "registerNGO(string)": {
        "details": "Permite que um novo usurio se registre como uma ONG."
      }
    },
    "version": 1
  },
  "userdoc": {
    "kind": "user",
    "methods": {},
    "version": 1
  },
  "storageLayout": {
    "storage": [
      {
        "astId": 27,
        "contract": "contracts/YourContract.sol:YourContract",
        "label": "ngos",
        "offset": 0,
        "slot": "0",
        "type": "t_mapping(t_address,t_struct(NGO)11_storage)"
      },
      {
        "astId": 31,
        "contract": "contracts/YourContract.sol:YourContract",
        "label": "allPosts",
        "offset": 0,
        "slot": "1",
        "type": "t_array(t_struct(Post)22_storage)dyn_storage"
      },
      {
        "astId": 37,
        "contract": "contracts/YourContract.sol:YourContract",
        "label": "hasLiked",
        "offset": 0,
        "slot": "2",
        "type": "t_mapping(t_uint256,t_mapping(t_address,t_bool))"
      }
    ],
    "types": {
      "t_address": {
        "encoding": "inplace",
        "label": "address",
        "numberOfBytes": "20"
      },
      "t_array(t_struct(Post)22_storage)dyn_storage": {
        "base": "t_struct(Post)22_storage",
        "encoding": "dynamic_array",
        "label": "struct YourContract.Post[]",
        "numberOfBytes": "32"
      },
      "t_bool": {
        "encoding": "inplace",
        "label": "bool",
        "numberOfBytes": "1"
      },
      "t_mapping(t_address,t_bool)": {
        "encoding": "mapping",
        "key": "t_address",
        "label": "mapping(address => bool)",
        "numberOfBytes": "32",
        "value": "t_bool"
      },
      "t_mapping(t_address,t_struct(NGO)11_storage)": {
        "encoding": "mapping",
        "key": "t_address",
        "label": "mapping(address => struct YourContract.NGO)",
        "numberOfBytes": "32",
        "value": "t_struct(NGO)11_storage"
      },
      "t_mapping(t_uint256,t_mapping(t_address,t_bool))": {
        "encoding": "mapping",
        "key": "t_uint256",
        "label": "mapping(uint256 => mapping(address => bool))",
        "numberOfBytes": "32",
        "value": "t_mapping(t_address,t_bool)"
      },
      "t_string_storage": {
        "encoding": "bytes",
        "label": "string",
        "numberOfBytes": "32"
      },
      "t_struct(NGO)11_storage": {
        "encoding": "inplace",
        "label": "struct YourContract.NGO",
        "members": [
          {
            "astId": 4,
            "contract": "contracts/YourContract.sol:YourContract",
            "label": "name",
            "offset": 0,
            "slot": "0",
            "type": "t_string_storage"
          },
          {
            "astId": 6,
            "contract": "contracts/YourContract.sol:YourContract",
            "label": "owner",
            "offset": 0,
            "slot": "1",
            "type": "t_address"
          },
          {
            "astId": 8,
            "contract": "contracts/YourContract.sol:YourContract",
            "label": "reputation",
            "offset": 0,
            "slot": "2",
            "type": "t_uint256"
          },
          {
            "astId": 10,
            "contract": "contracts/YourContract.sol:YourContract",
            "label": "isRegistered",
            "offset": 0,
            "slot": "3",
            "type": "t_bool"
          }
        ],
        "numberOfBytes": "128"
      },
      "t_struct(Post)22_storage": {
        "encoding": "inplace",
        "label": "struct YourContract.Post",
        "members": [
          {
            "astId": 13,
            "contract": "contracts/YourContract.sol:YourContract",
            "label": "postId",
            "offset": 0,
            "slot": "0",
            "type": "t_uint256"
          },
          {
            "astId": 15,
            "contract": "contracts/YourContract.sol:YourContract",
            "label": "ngoOwner",
            "offset": 0,
            "slot": "1",
            "type": "t_address"
          },
          {
            "astId": 17,
            "contract": "contracts/YourContract.sol:YourContract",
            "label": "contentUrl",
            "offset": 0,
            "slot": "2",
            "type": "t_string_storage"
          },
          {
            "astId": 19,
            "contract": "contracts/YourContract.sol:YourContract",
            "label": "likeCount",
            "offset": 0,
            "slot": "3",
            "type": "t_uint256"
          },
          {
            "astId": 21,
            "contract": "contracts/YourContract.sol:YourContract",
            "label": "totalDonated",
            "offset": 0,
            "slot": "4",
            "type": "t_uint256"
          }
        ],
        "numberOfBytes": "160"
      },
      "t_uint256": {
        "encoding": "inplace",
        "label": "uint256",
        "numberOfBytes": "32"
      }
    }
  }
}